{
  "_format": "hh-sol-artifact-1",
  "contractName": "Web3Mint",
  "sourceName": "contracts/Web3Mint.sol",
  "abi": [
    {
      "inputs": [],
      "stateMutability": "nonpayable",
      "type": "constructor"
    },
    {
      "anonymous": false,
      "inputs": [
        {
          "indexed": true,
          "internalType": "address",
          "name": "owner",
          "type": "address"
        },
        {
          "indexed": true,
          "internalType": "address",
          "name": "approved",
          "type": "address"
        },
        {
          "indexed": true,
          "internalType": "uint256",
          "name": "tokenId",
          "type": "uint256"
        }
      ],
      "name": "Approval",
      "type": "event"
    },
    {
      "anonymous": false,
      "inputs": [
        {
          "indexed": true,
          "internalType": "address",
          "name": "owner",
          "type": "address"
        },
        {
          "indexed": true,
          "internalType": "address",
          "name": "operator",
          "type": "address"
        },
        {
          "indexed": false,
          "internalType": "bool",
          "name": "approved",
          "type": "bool"
        }
      ],
      "name": "ApprovalForAll",
      "type": "event"
    },
    {
      "anonymous": false,
      "inputs": [
        {
          "indexed": true,
          "internalType": "address",
          "name": "previousOwner",
          "type": "address"
        },
        {
          "indexed": true,
          "internalType": "address",
          "name": "newOwner",
          "type": "address"
        }
      ],
      "name": "OwnershipTransferred",
      "type": "event"
    },
    {
      "anonymous": false,
      "inputs": [
        {
          "indexed": true,
          "internalType": "address",
          "name": "from",
          "type": "address"
        },
        {
          "indexed": true,
          "internalType": "address",
          "name": "to",
          "type": "address"
        },
        {
          "indexed": true,
          "internalType": "uint256",
          "name": "tokenId",
          "type": "uint256"
        }
      ],
      "name": "Transfer",
      "type": "event"
    },
    {
      "inputs": [
        {
          "internalType": "address",
          "name": "to",
          "type": "address"
        },
        {
          "internalType": "uint256",
          "name": "tokenId",
          "type": "uint256"
        }
      ],
      "name": "approve",
      "outputs": [],
      "stateMutability": "nonpayable",
      "type": "function"
    },
    {
      "inputs": [
        {
          "internalType": "address",
          "name": "owner",
          "type": "address"
        }
      ],
      "name": "balanceOf",
      "outputs": [
        {
          "internalType": "uint256",
          "name": "",
          "type": "uint256"
        }
      ],
      "stateMutability": "view",
      "type": "function"
    },
    {
      "inputs": [
        {
          "internalType": "uint256",
          "name": "tokenId",
          "type": "uint256"
        }
      ],
      "name": "getApproved",
      "outputs": [
        {
          "internalType": "address",
          "name": "",
          "type": "address"
        }
      ],
      "stateMutability": "view",
      "type": "function"
    },
    {
      "inputs": [
        {
          "internalType": "address",
          "name": "owner",
          "type": "address"
        },
        {
          "internalType": "address",
          "name": "operator",
          "type": "address"
        }
      ],
      "name": "isApprovedForAll",
      "outputs": [
        {
          "internalType": "bool",
          "name": "",
          "type": "bool"
        }
      ],
      "stateMutability": "view",
      "type": "function"
    },
    {
      "inputs": [],
      "name": "maxSupply",
      "outputs": [
        {
          "internalType": "uint256",
          "name": "",
          "type": "uint256"
        }
      ],
      "stateMutability": "view",
      "type": "function"
    },
    {
      "inputs": [
        {
          "internalType": "string",
          "name": "name",
          "type": "string"
        },
        {
          "internalType": "string",
          "name": "imageURI",
          "type": "string"
        }
      ],
      "name": "mintIpfsNFT",
      "outputs": [],
      "stateMutability": "nonpayable",
      "type": "function"
    },
    {
      "inputs": [],
      "name": "name",
      "outputs": [
        {
          "internalType": "string",
          "name": "",
          "type": "string"
        }
      ],
      "stateMutability": "view",
      "type": "function"
    },
    {
      "inputs": [],
      "name": "owner",
      "outputs": [
        {
          "internalType": "address",
          "name": "",
          "type": "address"
        }
      ],
      "stateMutability": "view",
      "type": "function"
    },
    {
      "inputs": [
        {
          "internalType": "uint256",
          "name": "tokenId",
          "type": "uint256"
        }
      ],
      "name": "ownerOf",
      "outputs": [
        {
          "internalType": "address",
          "name": "",
          "type": "address"
        }
      ],
      "stateMutability": "view",
      "type": "function"
    },
    {
      "inputs": [],
      "name": "renounceOwnership",
      "outputs": [],
      "stateMutability": "nonpayable",
      "type": "function"
    },
    {
      "inputs": [
        {
          "internalType": "address",
          "name": "from",
          "type": "address"
        },
        {
          "internalType": "address",
          "name": "to",
          "type": "address"
        },
        {
          "internalType": "uint256",
          "name": "tokenId",
          "type": "uint256"
        }
      ],
      "name": "safeTransferFrom",
      "outputs": [],
      "stateMutability": "nonpayable",
      "type": "function"
    },
    {
      "inputs": [
        {
          "internalType": "address",
          "name": "from",
          "type": "address"
        },
        {
          "internalType": "address",
          "name": "to",
          "type": "address"
        },
        {
          "internalType": "uint256",
          "name": "tokenId",
          "type": "uint256"
        },
        {
          "internalType": "bytes",
          "name": "data",
          "type": "bytes"
        }
      ],
      "name": "safeTransferFrom",
      "outputs": [],
      "stateMutability": "nonpayable",
      "type": "function"
    },
    {
      "inputs": [
        {
          "internalType": "address",
          "name": "operator",
          "type": "address"
        },
        {
          "internalType": "bool",
          "name": "approved",
          "type": "bool"
        }
      ],
      "name": "setApprovalForAll",
      "outputs": [],
      "stateMutability": "nonpayable",
      "type": "function"
    },
    {
      "inputs": [
        {
          "internalType": "uint256",
          "name": "value",
          "type": "uint256"
        }
      ],
      "name": "setMaxSupply",
      "outputs": [],
      "stateMutability": "nonpayable",
      "type": "function"
    },
    {
      "inputs": [
        {
          "internalType": "bytes4",
          "name": "interfaceId",
          "type": "bytes4"
        }
      ],
      "name": "supportsInterface",
      "outputs": [
        {
          "internalType": "bool",
          "name": "",
          "type": "bool"
        }
      ],
      "stateMutability": "view",
      "type": "function"
    },
    {
      "inputs": [],
      "name": "symbol",
      "outputs": [
        {
          "internalType": "string",
          "name": "",
          "type": "string"
        }
      ],
      "stateMutability": "view",
      "type": "function"
    },
    {
      "inputs": [
        {
          "internalType": "uint256",
          "name": "index",
          "type": "uint256"
        }
      ],
      "name": "tokenByIndex",
      "outputs": [
        {
          "internalType": "uint256",
          "name": "",
          "type": "uint256"
        }
      ],
      "stateMutability": "view",
      "type": "function"
    },
    {
      "inputs": [
        {
          "internalType": "address",
          "name": "owner",
          "type": "address"
        },
        {
          "internalType": "uint256",
          "name": "index",
          "type": "uint256"
        }
      ],
      "name": "tokenOfOwnerByIndex",
      "outputs": [
        {
          "internalType": "uint256",
          "name": "",
          "type": "uint256"
        }
      ],
      "stateMutability": "view",
      "type": "function"
    },
    {
      "inputs": [
        {
          "internalType": "uint256",
          "name": "_tokenId",
          "type": "uint256"
        }
      ],
      "name": "tokenURI",
      "outputs": [
        {
          "internalType": "string",
          "name": "",
          "type": "string"
        }
      ],
      "stateMutability": "view",
      "type": "function"
    },
    {
      "inputs": [],
      "name": "totalSupply",
      "outputs": [
        {
          "internalType": "uint256",
          "name": "",
          "type": "uint256"
        }
      ],
      "stateMutability": "view",
      "type": "function"
    },
    {
      "inputs": [
        {
          "internalType": "address",
          "name": "from",
          "type": "address"
        },
        {
          "internalType": "address",
          "name": "to",
          "type": "address"
        },
        {
          "internalType": "uint256",
          "name": "tokenId",
          "type": "uint256"
        }
      ],
      "name": "transferFrom",
      "outputs": [],
      "stateMutability": "nonpayable",
      "type": "function"
    },
    {
      "inputs": [
        {
          "internalType": "address",
          "name": "newOwner",
          "type": "address"
        }
      ],
      "name": "transferOwnership",
      "outputs": [],
      "stateMutability": "nonpayable",
      "type": "function"
    },
    {
      "inputs": [
        {
          "internalType": "uint256",
          "name": "",
          "type": "uint256"
        }
      ],
      "name": "web3Nfts",
      "outputs": [
        {
          "internalType": "string",
          "name": "name",
          "type": "string"
        },
        {
          "internalType": "string",
          "name": "imageURL",
          "type": "string"
        }
      ],
      "stateMutability": "view",
      "type": "function"
    }
  ],
  "bytecode": "0x60806040526032600d553480156200001657600080fd5b506040518060400160405280600381526020017f4e465400000000000000000000000000000000000000000000000000000000008152506040518060400160405280600381526020017f6e6674000000000000000000000000000000000000000000000000000000000081525081600090816200009491906200052e565b508060019081620000a691906200052e565b505050620000c9620000bd6200011a60201b60201c565b6200012260201b60201c565b620001146040518060400160405280601881526020017f54686973206973206d79204e465420636f6e74726163742e0000000000000000815250620001e860201b62000f371760201c565b620006c8565b600033905090565b6000600a60009054906101000a900473ffffffffffffffffffffffffffffffffffffffff16905081600a60006101000a81548173ffffffffffffffffffffffffffffffffffffffff021916908373ffffffffffffffffffffffffffffffffffffffff1602179055508173ffffffffffffffffffffffffffffffffffffffff168173ffffffffffffffffffffffffffffffffffffffff167f8be0079c531659141344cd1fd0a4f28419497f9722a3daafe3b4186f6b6457e060405160405180910390a35050565b6200028881604051602401620001ff9190620006a4565b6040516020818303038152906040527f41304fac000000000000000000000000000000000000000000000000000000007bffffffffffffffffffffffffffffffffffffffffffffffffffffffff19166020820180517bffffffffffffffffffffffffffffffffffffffffffffffffffffffff83818316178352505050506200028b60201b60201c565b50565b60008151905060006a636f6e736f6c652e6c6f679050602083016000808483855afa5050505050565b600081519050919050565b7f4e487b7100000000000000000000000000000000000000000000000000000000600052604160045260246000fd5b7f4e487b7100000000000000000000000000000000000000000000000000000000600052602260045260246000fd5b600060028204905060018216806200033657607f821691505b6020821081036200034c576200034b620002ee565b5b50919050565b60008190508160005260206000209050919050565b60006020601f8301049050919050565b600082821b905092915050565b600060088302620003b67fffffffffffffffffffffffffffffffffffffffffffffffffffffffffffffffff8262000377565b620003c2868362000377565b95508019841693508086168417925050509392505050565b6000819050919050565b6000819050919050565b60006200040f620004096200040384620003da565b620003e4565b620003da565b9050919050565b6000819050919050565b6200042b83620003ee565b620004436200043a8262000416565b84845462000384565b825550505050565b600090565b6200045a6200044b565b6200046781848462000420565b505050565b5b818110156200048f576200048360008262000450565b6001810190506200046d565b5050565b601f821115620004de57620004a88162000352565b620004b38462000367565b81016020851015620004c3578190505b620004db620004d28562000367565b8301826200046c565b50505b505050565b600082821c905092915050565b60006200050360001984600802620004e3565b1980831691505092915050565b60006200051e8383620004f0565b9150826002028217905092915050565b6200053982620002b4565b67ffffffffffffffff811115620005555762000554620002bf565b5b6200056182546200031d565b6200056e82828562000493565b600060209050601f831160018114620005a6576000841562000591578287015190505b6200059d858262000510565b8655506200060d565b601f198416620005b68662000352565b60005b82811015620005e057848901518255600182019150602085019450602081019050620005b9565b86831015620006005784890151620005fc601f891682620004f0565b8355505b6001600288020188555050505b505050505050565b600082825260208201905092915050565b60005b838110156200064657808201518184015260208101905062000629565b60008484015250505050565b6000601f19601f8301169050919050565b60006200067082620002b4565b6200067c818562000615565b93506200068e81856020860162000626565b620006998162000652565b840191505092915050565b60006020820190508181036000830152620006c0818462000663565b905092915050565b613f7d80620006d86000396000f3fe608060405234801561001057600080fd5b506004361061014d5760003560e01c806370a08231116100c3578063c87b56dd1161007c578063c87b56dd1461039c578063d5abeb01146103cc578063e985e9c5146103ea578063eb00195d1461041a578063f2fde38b14610436578063fad1f30a146104525761014d565b806370a08231146102ee578063715018a61461031e5780638da5cb5b1461032857806395d89b4114610346578063a22cb46514610364578063b88d4fde146103805761014d565b806323b872dd1161011557806323b872dd1461020a5780632f745c591461022657806342842e0e146102565780634f6ccce7146102725780636352211e146102a25780636f8b44b0146102d25761014d565b806301ffc9a71461015257806306fdde0314610182578063081812fc146101a0578063095ea7b3146101d057806318160ddd146101ec575b600080fd5b61016c60048036038101906101679190612700565b610483565b6040516101799190612748565b60405180910390f35b61018a6104fd565b60405161019791906127f3565b60405180910390f35b6101ba60048036038101906101b5919061284b565b61058f565b6040516101c791906128b9565b60405180910390f35b6101ea60048036038101906101e59190612900565b6105d5565b005b6101f46106ec565b604051610201919061294f565b60405180910390f35b610224600480360381019061021f919061296a565b6106f9565b005b610240600480360381019061023b9190612900565b610759565b60405161024d919061294f565b60405180910390f35b610270600480360381019061026b919061296a565b6107fe565b005b61028c6004803603810190610287919061284b565b61081e565b604051610299919061294f565b60405180910390f35b6102bc60048036038101906102b7919061284b565b61088f565b6040516102c991906128b9565b60405180910390f35b6102ec60048036038101906102e7919061284b565b610915565b005b610308600480360381019061030391906129bd565b610927565b604051610315919061294f565b60405180910390f35b6103266109de565b005b6103306109f2565b60405161033d91906128b9565b60405180910390f35b61034e610a1c565b60405161035b91906127f3565b60405180910390f35b61037e60048036038101906103799190612a16565b610aae565b005b61039a60048036038101906103959190612b8b565b610ac4565b005b6103b660048036038101906103b1919061284b565b610b26565b6040516103c391906127f3565b60405180910390f35b6103d4610bd6565b6040516103e1919061294f565b60405180910390f35b61040460048036038101906103ff9190612c0e565b610be0565b6040516104119190612748565b60405180910390f35b610434600480360381019061042f9190612cef565b610c74565b005b610450600480360381019061044b91906129bd565b610d70565b005b61046c6004803603810190610467919061284b565b610df3565b60405161047a929190612d67565b60405180910390f35b60007f780e9d63000000000000000000000000000000000000000000000000000000007bffffffffffffffffffffffffffffffffffffffffffffffffffffffff1916827bffffffffffffffffffffffffffffffffffffffffffffffffffffffff191614806104f657506104f582610fd0565b5b9050919050565b60606000805461050c90612dcd565b80601f016020809104026020016040519081016040528092919081815260200182805461053890612dcd565b80156105855780601f1061055a57610100808354040283529160200191610585565b820191906000526020600020905b81548152906001019060200180831161056857829003601f168201915b5050505050905090565b600061059a826110b2565b6004600083815260200190815260200160002060009054906101000a900473ffffffffffffffffffffffffffffffffffffffff169050919050565b60006105e08261088f565b90508073ffffffffffffffffffffffffffffffffffffffff168373ffffffffffffffffffffffffffffffffffffffff1603610650576040517f08c379a000000000000000000000000000000000000000000000000000000000815260040161064790612e70565b60405180910390fd5b8073ffffffffffffffffffffffffffffffffffffffff1661066f6110fd565b73ffffffffffffffffffffffffffffffffffffffff16148061069e575061069d816106986110fd565b610be0565b5b6106dd576040517f08c379a00000000000000000000000000000000000000000000000000000000081526004016106d490612f02565b60405180910390fd5b6106e78383611105565b505050565b6000600880549050905090565b61070a6107046110fd565b826111be565b610749576040517f08c379a000000000000000000000000000000000000000000000000000000000815260040161074090612f94565b60405180910390fd5b610754838383611253565b505050565b600061076483610927565b82106107a5576040517f08c379a000000000000000000000000000000000000000000000000000000000815260040161079c90613026565b60405180910390fd5b600660008473ffffffffffffffffffffffffffffffffffffffff1673ffffffffffffffffffffffffffffffffffffffff168152602001908152602001600020600083815260200190815260200160002054905092915050565b61081983838360405180602001604052806000815250610ac4565b505050565b60006108286106ec565b8210610869576040517f08c379a0000000000000000000000000000000000000000000000000000000008152600401610860906130b8565b60405180910390fd5b6008828154811061087d5761087c6130d8565b5b90600052602060002001549050919050565b60008061089b8361154c565b9050600073ffffffffffffffffffffffffffffffffffffffff168173ffffffffffffffffffffffffffffffffffffffff160361090c576040517f08c379a000000000000000000000000000000000000000000000000000000000815260040161090390613153565b60405180910390fd5b80915050919050565b61091d611589565b80600d8190555050565b60008073ffffffffffffffffffffffffffffffffffffffff168273ffffffffffffffffffffffffffffffffffffffff1603610997576040517f08c379a000000000000000000000000000000000000000000000000000000000815260040161098e906131e5565b60405180910390fd5b600360008373ffffffffffffffffffffffffffffffffffffffff1673ffffffffffffffffffffffffffffffffffffffff168152602001908152602001600020549050919050565b6109e6611589565b6109f06000611607565b565b6000600a60009054906101000a900473ffffffffffffffffffffffffffffffffffffffff16905090565b606060018054610a2b90612dcd565b80601f0160208091040260200160405190810160405280929190818152602001828054610a5790612dcd565b8015610aa45780601f10610a7957610100808354040283529160200191610aa4565b820191906000526020600020905b815481529060010190602001808311610a8757829003601f168201915b5050505050905090565b610ac0610ab96110fd565b83836116cd565b5050565b610ad5610acf6110fd565b836111be565b610b14576040517f08c379a0000000000000000000000000000000000000000000000000000000008152600401610b0b90612f94565b60405180910390fd5b610b2084848484611839565b50505050565b60606000610ba6600b8481548110610b4157610b406130d8565b5b9060005260206000209060020201600001610b5b85611895565b600b8681548110610b6f57610b6e6130d8565b5b9060005260206000209060020201600101604051602001610b929392919061342f565b604051602081830303815290604052611963565b9050600081604051602001610bbb91906134d8565b60405160208183030381529060405290508092505050919050565b6000600d54905090565b6000600560008473ffffffffffffffffffffffffffffffffffffffff1673ffffffffffffffffffffffffffffffffffffffff16815260200190815260200160002060008373ffffffffffffffffffffffffffffffffffffffff1673ffffffffffffffffffffffffffffffffffffffff16815260200190815260200160002060009054906101000a900460ff16905092915050565b6000610c80600c611afa565b9050600d548110610cc6576040517f08c379a0000000000000000000000000000000000000000000000000000000008152600401610cbd90613546565b60405180910390fd5b610cd03382611b08565b600b60405180604001604052808581526020018481525090806001815401808255809150506001900390600052602060002090600202016000909190919091506000820151816000019081610d2591906136fd565b506020820151816001019081610d3b91906136fd565b505050610d61604051806060016040528060258152602001613ee3602591398233611b26565b610d6b600c611bc5565b505050565b610d78611589565b600073ffffffffffffffffffffffffffffffffffffffff168173ffffffffffffffffffffffffffffffffffffffff1603610de7576040517f08c379a0000000000000000000000000000000000000000000000000000000008152600401610dde90613841565b60405180910390fd5b610df081611607565b50565b600b8181548110610e0357600080fd5b9060005260206000209060020201600091509050806000018054610e2690612dcd565b80601f0160208091040260200160405190810160405280929190818152602001828054610e5290612dcd565b8015610e9f5780601f10610e7457610100808354040283529160200191610e9f565b820191906000526020600020905b815481529060010190602001808311610e8257829003601f168201915b505050505090806001018054610eb490612dcd565b80601f0160208091040260200160405190810160405280929190818152602001828054610ee090612dcd565b8015610f2d5780601f10610f0257610100808354040283529160200191610f2d565b820191906000526020600020905b815481529060010190602001808311610f1057829003601f168201915b5050505050905082565b610fcd81604051602401610f4b91906127f3565b6040516020818303038152906040527f41304fac000000000000000000000000000000000000000000000000000000007bffffffffffffffffffffffffffffffffffffffffffffffffffffffff19166020820180517bffffffffffffffffffffffffffffffffffffffffffffffffffffffff8381831617835250505050611bdb565b50565b60007f80ac58cd000000000000000000000000000000000000000000000000000000007bffffffffffffffffffffffffffffffffffffffffffffffffffffffff1916827bffffffffffffffffffffffffffffffffffffffffffffffffffffffff1916148061109b57507f5b5e139f000000000000000000000000000000000000000000000000000000007bffffffffffffffffffffffffffffffffffffffffffffffffffffffff1916827bffffffffffffffffffffffffffffffffffffffffffffffffffffffff1916145b806110ab57506110aa82611c04565b5b9050919050565b6110bb81611c6e565b6110fa576040517f08c379a00000000000000000000000000000000000000000000000000000000081526004016110f190613153565b60405180910390fd5b50565b600033905090565b816004600083815260200190815260200160002060006101000a81548173ffffffffffffffffffffffffffffffffffffffff021916908373ffffffffffffffffffffffffffffffffffffffff160217905550808273ffffffffffffffffffffffffffffffffffffffff166111788361088f565b73ffffffffffffffffffffffffffffffffffffffff167f8c5be1e5ebec7d5bd14f71427d1e84f3dd0314c0f7b2291e5b200ac8c7c3b92560405160405180910390a45050565b6000806111ca8361088f565b90508073ffffffffffffffffffffffffffffffffffffffff168473ffffffffffffffffffffffffffffffffffffffff16148061120c575061120b8185610be0565b5b8061124a57508373ffffffffffffffffffffffffffffffffffffffff166112328461058f565b73ffffffffffffffffffffffffffffffffffffffff16145b91505092915050565b8273ffffffffffffffffffffffffffffffffffffffff166112738261088f565b73ffffffffffffffffffffffffffffffffffffffff16146112c9576040517f08c379a00000000000000000000000000000000000000000000000000000000081526004016112c0906138d3565b60405180910390fd5b600073ffffffffffffffffffffffffffffffffffffffff168273ffffffffffffffffffffffffffffffffffffffff1603611338576040517f08c379a000000000000000000000000000000000000000000000000000000000815260040161132f90613965565b60405180910390fd5b6113458383836001611caf565b8273ffffffffffffffffffffffffffffffffffffffff166113658261088f565b73ffffffffffffffffffffffffffffffffffffffff16146113bb576040517f08c379a00000000000000000000000000000000000000000000000000000000081526004016113b2906138d3565b60405180910390fd5b6004600082815260200190815260200160002060006101000a81549073ffffffffffffffffffffffffffffffffffffffff02191690556001600360008573ffffffffffffffffffffffffffffffffffffffff1673ffffffffffffffffffffffffffffffffffffffff168152602001908152602001600020600082825403925050819055506001600360008473ffffffffffffffffffffffffffffffffffffffff1673ffffffffffffffffffffffffffffffffffffffff16815260200190815260200160002060008282540192505081905550816002600083815260200190815260200160002060006101000a81548173ffffffffffffffffffffffffffffffffffffffff021916908373ffffffffffffffffffffffffffffffffffffffff160217905550808273ffffffffffffffffffffffffffffffffffffffff168473ffffffffffffffffffffffffffffffffffffffff167fddf252ad1be2c89b69c2b068fc378daa952ba7f163c4a11628f55a4df523b3ef60405160405180910390a46115478383836001611e0d565b505050565b60006002600083815260200190815260200160002060009054906101000a900473ffffffffffffffffffffffffffffffffffffffff169050919050565b6115916110fd565b73ffffffffffffffffffffffffffffffffffffffff166115af6109f2565b73ffffffffffffffffffffffffffffffffffffffff1614611605576040517f08c379a00000000000000000000000000000000000000000000000000000000081526004016115fc906139d1565b60405180910390fd5b565b6000600a60009054906101000a900473ffffffffffffffffffffffffffffffffffffffff16905081600a60006101000a81548173ffffffffffffffffffffffffffffffffffffffff021916908373ffffffffffffffffffffffffffffffffffffffff1602179055508173ffffffffffffffffffffffffffffffffffffffff168173ffffffffffffffffffffffffffffffffffffffff167f8be0079c531659141344cd1fd0a4f28419497f9722a3daafe3b4186f6b6457e060405160405180910390a35050565b8173ffffffffffffffffffffffffffffffffffffffff168373ffffffffffffffffffffffffffffffffffffffff160361173b576040517f08c379a000000000000000000000000000000000000000000000000000000000815260040161173290613a3d565b60405180910390fd5b80600560008573ffffffffffffffffffffffffffffffffffffffff1673ffffffffffffffffffffffffffffffffffffffff16815260200190815260200160002060008473ffffffffffffffffffffffffffffffffffffffff1673ffffffffffffffffffffffffffffffffffffffff16815260200190815260200160002060006101000a81548160ff0219169083151502179055508173ffffffffffffffffffffffffffffffffffffffff168373ffffffffffffffffffffffffffffffffffffffff167f17307eab39ab6107e8899845ad3d59bd9653f200f220920489ca2b5937696c318360405161182c9190612748565b60405180910390a3505050565b611844848484611253565b61185084848484611e13565b61188f576040517f08c379a000000000000000000000000000000000000000000000000000000000815260040161188690613acf565b60405180910390fd5b50505050565b6060600060016118a484611f9a565b01905060008167ffffffffffffffff8111156118c3576118c2612a60565b5b6040519080825280601f01601f1916602001820160405280156118f55781602001600182028036833780820191505090505b509050600082602001820190505b600115611958578080600190039150507f3031323334353637383961626364656600000000000000000000000000000000600a86061a8153600a858161194c5761194b613aef565b5b04945060008503611903575b819350505050919050565b60606000825190506000810361198b5760405180602001604052806000815250915050611af5565b6000600360028361199c9190613b4d565b6119a69190613b81565b60046119b29190613bb2565b905060006020826119c39190613b4d565b67ffffffffffffffff8111156119dc576119db612a60565b5b6040519080825280601f01601f191660200182016040528015611a0e5781602001600182028036833780820191505090505b5090506000604051806060016040528060408152602001613f08604091399050600181016020830160005b86811015611ab25760038101905062ffffff818a015116603f8160121c168401518060081b905060ff603f83600c1c1686015116810190508060081b905060ff603f8360061c1686015116810190508060081b905060ff603f831686015116810190508060e01b90508084526004840193505050611a39565b506003860660018114611acc5760028114611adc57611ae7565b613d3d60f01b6002830352611ae7565b603d60f81b60018303525b508484525050819450505050505b919050565b600081600001549050919050565b611b228282604051806020016040528060008152506120ed565b5050565b611bc0838383604051602401611b3e93929190613bf4565b6040516020818303038152906040527f1c7ec448000000000000000000000000000000000000000000000000000000007bffffffffffffffffffffffffffffffffffffffffffffffffffffffff19166020820180517bffffffffffffffffffffffffffffffffffffffffffffffffffffffff8381831617835250505050611bdb565b505050565b6001816000016000828254019250508190555050565b60008151905060006a636f6e736f6c652e6c6f679050602083016000808483855afa5050505050565b60007f01ffc9a7000000000000000000000000000000000000000000000000000000007bffffffffffffffffffffffffffffffffffffffffffffffffffffffff1916827bffffffffffffffffffffffffffffffffffffffffffffffffffffffff1916149050919050565b60008073ffffffffffffffffffffffffffffffffffffffff16611c908361154c565b73ffffffffffffffffffffffffffffffffffffffff1614159050919050565b611cbb84848484612148565b6001811115611cff576040517f08c379a0000000000000000000000000000000000000000000000000000000008152600401611cf690613ca4565b60405180910390fd5b6000829050600073ffffffffffffffffffffffffffffffffffffffff168573ffffffffffffffffffffffffffffffffffffffff1603611d4657611d418161214e565b611d85565b8373ffffffffffffffffffffffffffffffffffffffff168573ffffffffffffffffffffffffffffffffffffffff1614611d8457611d838582612197565b5b5b600073ffffffffffffffffffffffffffffffffffffffff168473ffffffffffffffffffffffffffffffffffffffff1603611dc757611dc281612304565b611e06565b8473ffffffffffffffffffffffffffffffffffffffff168473ffffffffffffffffffffffffffffffffffffffff1614611e0557611e0484826123d5565b5b5b5050505050565b50505050565b6000611e348473ffffffffffffffffffffffffffffffffffffffff16612454565b15611f8d578373ffffffffffffffffffffffffffffffffffffffff1663150b7a02611e5d6110fd565b8786866040518563ffffffff1660e01b8152600401611e7f9493929190613d19565b6020604051808303816000875af1925050508015611ebb57506040513d601f19601f82011682018060405250810190611eb89190613d7a565b60015b611f3d573d8060008114611eeb576040519150601f19603f3d011682016040523d82523d6000602084013e611ef0565b606091505b506000815103611f35576040517f08c379a0000000000000000000000000000000000000000000000000000000008152600401611f2c90613acf565b60405180910390fd5b805181602001fd5b63150b7a0260e01b7bffffffffffffffffffffffffffffffffffffffffffffffffffffffff1916817bffffffffffffffffffffffffffffffffffffffffffffffffffffffff191614915050611f92565b600190505b949350505050565b600080600090507a184f03e93ff9f4daa797ed6e38ed64bf6a1f0100000000000000008310611ff8577a184f03e93ff9f4daa797ed6e38ed64bf6a1f0100000000000000008381611fee57611fed613aef565b5b0492506040810190505b6d04ee2d6d415b85acef81000000008310612035576d04ee2d6d415b85acef8100000000838161202b5761202a613aef565b5b0492506020810190505b662386f26fc10000831061206457662386f26fc10000838161205a57612059613aef565b5b0492506010810190505b6305f5e100831061208d576305f5e100838161208357612082613aef565b5b0492506008810190505b61271083106120b25761271083816120a8576120a7613aef565b5b0492506004810190505b606483106120d557606483816120cb576120ca613aef565b5b0492506002810190505b600a83106120e4576001810190505b80915050919050565b6120f78383612477565b6121046000848484611e13565b612143576040517f08c379a000000000000000000000000000000000000000000000000000000000815260040161213a90613acf565b60405180910390fd5b505050565b50505050565b6008805490506009600083815260200190815260200160002081905550600881908060018154018082558091505060019003906000526020600020016000909190919091505550565b600060016121a484610927565b6121ae9190613da7565b9050600060076000848152602001908152602001600020549050818114612293576000600660008673ffffffffffffffffffffffffffffffffffffffff1673ffffffffffffffffffffffffffffffffffffffff168152602001908152602001600020600084815260200190815260200160002054905080600660008773ffffffffffffffffffffffffffffffffffffffff1673ffffffffffffffffffffffffffffffffffffffff168152602001908152602001600020600084815260200190815260200160002081905550816007600083815260200190815260200160002081905550505b6007600084815260200190815260200160002060009055600660008573ffffffffffffffffffffffffffffffffffffffff1673ffffffffffffffffffffffffffffffffffffffff16815260200190815260200160002060008381526020019081526020016000206000905550505050565b600060016008805490506123189190613da7565b9050600060096000848152602001908152602001600020549050600060088381548110612348576123476130d8565b5b90600052602060002001549050806008838154811061236a576123696130d8565b5b9060005260206000200181905550816009600083815260200190815260200160002081905550600960008581526020019081526020016000206000905560088054806123b9576123b8613ddb565b5b6001900381819060005260206000200160009055905550505050565b60006123e083610927565b905081600660008573ffffffffffffffffffffffffffffffffffffffff1673ffffffffffffffffffffffffffffffffffffffff168152602001908152602001600020600083815260200190815260200160002081905550806007600084815260200190815260200160002081905550505050565b6000808273ffffffffffffffffffffffffffffffffffffffff163b119050919050565b600073ffffffffffffffffffffffffffffffffffffffff168273ffffffffffffffffffffffffffffffffffffffff16036124e6576040517f08c379a00000000000000000000000000000000000000000000000000000000081526004016124dd90613e56565b60405180910390fd5b6124ef81611c6e565b1561252f576040517f08c379a000000000000000000000000000000000000000000000000000000000815260040161252690613ec2565b60405180910390fd5b61253d600083836001611caf565b61254681611c6e565b15612586576040517f08c379a000000000000000000000000000000000000000000000000000000000815260040161257d90613ec2565b60405180910390fd5b6001600360008473ffffffffffffffffffffffffffffffffffffffff1673ffffffffffffffffffffffffffffffffffffffff16815260200190815260200160002060008282540192505081905550816002600083815260200190815260200160002060006101000a81548173ffffffffffffffffffffffffffffffffffffffff021916908373ffffffffffffffffffffffffffffffffffffffff160217905550808273ffffffffffffffffffffffffffffffffffffffff16600073ffffffffffffffffffffffffffffffffffffffff167fddf252ad1be2c89b69c2b068fc378daa952ba7f163c4a11628f55a4df523b3ef60405160405180910390a4612690600083836001611e0d565b5050565b6000604051905090565b600080fd5b600080fd5b60007fffffffff0000000000000000000000000000000000000000000000000000000082169050919050565b6126dd816126a8565b81146126e857600080fd5b50565b6000813590506126fa816126d4565b92915050565b6000602082840312156127165761271561269e565b5b6000612724848285016126eb565b91505092915050565b60008115159050919050565b6127428161272d565b82525050565b600060208201905061275d6000830184612739565b92915050565b600081519050919050565b600082825260208201905092915050565b60005b8381101561279d578082015181840152602081019050612782565b60008484015250505050565b6000601f19601f8301169050919050565b60006127c582612763565b6127cf818561276e565b93506127df81856020860161277f565b6127e8816127a9565b840191505092915050565b6000602082019050818103600083015261280d81846127ba565b905092915050565b6000819050919050565b61282881612815565b811461283357600080fd5b50565b6000813590506128458161281f565b92915050565b6000602082840312156128615761286061269e565b5b600061286f84828501612836565b91505092915050565b600073ffffffffffffffffffffffffffffffffffffffff82169050919050565b60006128a382612878565b9050919050565b6128b381612898565b82525050565b60006020820190506128ce60008301846128aa565b92915050565b6128dd81612898565b81146128e857600080fd5b50565b6000813590506128fa816128d4565b92915050565b600080604083850312156129175761291661269e565b5b6000612925858286016128eb565b925050602061293685828601612836565b9150509250929050565b61294981612815565b82525050565b60006020820190506129646000830184612940565b92915050565b6000806000606084860312156129835761298261269e565b5b6000612991868287016128eb565b93505060206129a2868287016128eb565b92505060406129b386828701612836565b9150509250925092565b6000602082840312156129d3576129d261269e565b5b60006129e1848285016128eb565b91505092915050565b6129f38161272d565b81146129fe57600080fd5b50565b600081359050612a10816129ea565b92915050565b60008060408385031215612a2d57612a2c61269e565b5b6000612a3b858286016128eb565b9250506020612a4c85828601612a01565b9150509250929050565b600080fd5b600080fd5b7f4e487b7100000000000000000000000000000000000000000000000000000000600052604160045260246000fd5b612a98826127a9565b810181811067ffffffffffffffff82111715612ab757612ab6612a60565b5b80604052505050565b6000612aca612694565b9050612ad68282612a8f565b919050565b600067ffffffffffffffff821115612af657612af5612a60565b5b612aff826127a9565b9050602081019050919050565b82818337600083830152505050565b6000612b2e612b2984612adb565b612ac0565b905082815260208101848484011115612b4a57612b49612a5b565b5b612b55848285612b0c565b509392505050565b600082601f830112612b7257612b71612a56565b5b8135612b82848260208601612b1b565b91505092915050565b60008060008060808587031215612ba557612ba461269e565b5b6000612bb3878288016128eb565b9450506020612bc4878288016128eb565b9350506040612bd587828801612836565b925050606085013567ffffffffffffffff811115612bf657612bf56126a3565b5b612c0287828801612b5d565b91505092959194509250565b60008060408385031215612c2557612c2461269e565b5b6000612c33858286016128eb565b9250506020612c44858286016128eb565b9150509250929050565b600067ffffffffffffffff821115612c6957612c68612a60565b5b612c72826127a9565b9050602081019050919050565b6000612c92612c8d84612c4e565b612ac0565b905082815260208101848484011115612cae57612cad612a5b565b5b612cb9848285612b0c565b509392505050565b600082601f830112612cd657612cd5612a56565b5b8135612ce6848260208601612c7f565b91505092915050565b60008060408385031215612d0657612d0561269e565b5b600083013567ffffffffffffffff811115612d2457612d236126a3565b5b612d3085828601612cc1565b925050602083013567ffffffffffffffff811115612d5157612d506126a3565b5b612d5d85828601612cc1565b9150509250929050565b60006040820190508181036000830152612d8181856127ba565b90508181036020830152612d9581846127ba565b90509392505050565b7f4e487b7100000000000000000000000000000000000000000000000000000000600052602260045260246000fd5b60006002820490506001821680612de557607f821691505b602082108103612df857612df7612d9e565b5b50919050565b7f4552433732313a20617070726f76616c20746f2063757272656e74206f776e6560008201527f7200000000000000000000000000000000000000000000000000000000000000602082015250565b6000612e5a60218361276e565b9150612e6582612dfe565b604082019050919050565b60006020820190508181036000830152612e8981612e4d565b9050919050565b7f4552433732313a20617070726f76652063616c6c6572206973206e6f7420746f60008201527f6b656e206f776e6572206f7220617070726f76656420666f7220616c6c000000602082015250565b6000612eec603d8361276e565b9150612ef782612e90565b604082019050919050565b60006020820190508181036000830152612f1b81612edf565b9050919050565b7f4552433732313a2063616c6c6572206973206e6f7420746f6b656e206f776e6560008201527f72206f7220617070726f76656400000000000000000000000000000000000000602082015250565b6000612f7e602d8361276e565b9150612f8982612f22565b604082019050919050565b60006020820190508181036000830152612fad81612f71565b9050919050565b7f455243373231456e756d657261626c653a206f776e657220696e646578206f7560008201527f74206f6620626f756e6473000000000000000000000000000000000000000000602082015250565b6000613010602b8361276e565b915061301b82612fb4565b604082019050919050565b6000602082019050818103600083015261303f81613003565b9050919050565b7f455243373231456e756d657261626c653a20676c6f62616c20696e646578206f60008201527f7574206f6620626f756e64730000000000000000000000000000000000000000602082015250565b60006130a2602c8361276e565b91506130ad82613046565b604082019050919050565b600060208201905081810360008301526130d181613095565b9050919050565b7f4e487b7100000000000000000000000000000000000000000000000000000000600052603260045260246000fd5b7f4552433732313a20696e76616c696420746f6b656e2049440000000000000000600082015250565b600061313d60188361276e565b915061314882613107565b602082019050919050565b6000602082019050818103600083015261316c81613130565b9050919050565b7f4552433732313a2061646472657373207a65726f206973206e6f74206120766160008201527f6c6964206f776e65720000000000000000000000000000000000000000000000602082015250565b60006131cf60298361276e565b91506131da82613173565b604082019050919050565b600060208201905081810360008301526131fe816131c2565b9050919050565b600081905092915050565b7f7b226e616d65223a202200000000000000000000000000000000000000000000600082015250565b6000613246600a83613205565b915061325182613210565b600a82019050919050565b60008190508160005260206000209050919050565b6000815461327e81612dcd565b6132888186613205565b945060018216600081146132a357600181146132b8576132eb565b60ff19831686528115158202860193506132eb565b6132c18561325c565b60005b838110156132e3578154818901526001820191506020810190506132c4565b838801955050505b50505092915050565b7f202d2d204e465420233a20000000000000000000000000000000000000000000600082015250565b600061332a600b83613205565b9150613335826132f4565b600b82019050919050565b600061334b82612763565b6133558185613205565b935061336581856020860161277f565b80840191505092915050565b7f222c20226465736372697074696f6e223a2022416e2065706963204e4654222c60008201527f2022696d616765223a2022697066733a2f2f0000000000000000000000000000602082015250565b60006133cd603283613205565b91506133d882613371565b603282019050919050565b7f227d000000000000000000000000000000000000000000000000000000000000600082015250565b6000613419600283613205565b9150613424826133e3565b600282019050919050565b600061343a82613239565b91506134468286613271565b91506134518261331d565b915061345d8285613340565b9150613468826133c0565b91506134748284613271565b915061347f8261340c565b9150819050949350505050565b7f646174613a6170706c69636174696f6e2f6a736f6e3b6261736536342c000000600082015250565b60006134c2601d83613205565b91506134cd8261348c565b601d82019050919050565b60006134e3826134b5565b91506134ef8284613340565b915081905092915050565b7f4d617820737570706c7920726561636865640000000000000000000000000000600082015250565b600061353060128361276e565b915061353b826134fa565b602082019050919050565b6000602082019050818103600083015261355f81613523565b9050919050565b60006020601f8301049050919050565b600082821b905092915050565b6000600883026135b37fffffffffffffffffffffffffffffffffffffffffffffffffffffffffffffffff82613576565b6135bd8683613576565b95508019841693508086168417925050509392505050565b6000819050919050565b60006135fa6135f56135f084612815565b6135d5565b612815565b9050919050565b6000819050919050565b613614836135df565b61362861362082613601565b848454613583565b825550505050565b600090565b61363d613630565b61364881848461360b565b505050565b5b8181101561366c57613661600082613635565b60018101905061364e565b5050565b601f8211156136b1576136828161325c565b61368b84613566565b8101602085101561369a578190505b6136ae6136a685613566565b83018261364d565b50505b505050565b600082821c905092915050565b60006136d4600019846008026136b6565b1980831691505092915050565b60006136ed83836136c3565b9150826002028217905092915050565b61370682612763565b67ffffffffffffffff81111561371f5761371e612a60565b5b6137298254612dcd565b613734828285613670565b600060209050601f8311600181146137675760008415613755578287015190505b61375f85826136e1565b8655506137c7565b601f1984166137758661325c565b60005b8281101561379d57848901518255600182019150602085019450602081019050613778565b868310156137ba57848901516137b6601f8916826136c3565b8355505b6001600288020188555050505b505050505050565b7f4f776e61626c653a206e6577206f776e657220697320746865207a65726f206160008201527f6464726573730000000000000000000000000000000000000000000000000000602082015250565b600061382b60268361276e565b9150613836826137cf565b604082019050919050565b6000602082019050818103600083015261385a8161381e565b9050919050565b7f4552433732313a207472616e736665722066726f6d20696e636f72726563742060008201527f6f776e6572000000000000000000000000000000000000000000000000000000602082015250565b60006138bd60258361276e565b91506138c882613861565b604082019050919050565b600060208201905081810360008301526138ec816138b0565b9050919050565b7f4552433732313a207472616e7366657220746f20746865207a65726f2061646460008201527f7265737300000000000000000000000000000000000000000000000000000000602082015250565b600061394f60248361276e565b915061395a826138f3565b604082019050919050565b6000602082019050818103600083015261397e81613942565b9050919050565b7f4f776e61626c653a2063616c6c6572206973206e6f7420746865206f776e6572600082015250565b60006139bb60208361276e565b91506139c682613985565b602082019050919050565b600060208201905081810360008301526139ea816139ae565b9050919050565b7f4552433732313a20617070726f766520746f2063616c6c657200000000000000600082015250565b6000613a2760198361276e565b9150613a32826139f1565b602082019050919050565b60006020820190508181036000830152613a5681613a1a565b9050919050565b7f4552433732313a207472616e7366657220746f206e6f6e20455243373231526560008201527f63656976657220696d706c656d656e7465720000000000000000000000000000602082015250565b6000613ab960328361276e565b9150613ac482613a5d565b604082019050919050565b60006020820190508181036000830152613ae881613aac565b9050919050565b7f4e487b7100000000000000000000000000000000000000000000000000000000600052601260045260246000fd5b7f4e487b7100000000000000000000000000000000000000000000000000000000600052601160045260246000fd5b6000613b5882612815565b9150613b6383612815565b9250828201905080821115613b7b57613b7a613b1e565b5b92915050565b6000613b8c82612815565b9150613b9783612815565b925082613ba757613ba6613aef565b5b828204905092915050565b6000613bbd82612815565b9150613bc883612815565b9250828202613bd681612815565b91508282048414831517613bed57613bec613b1e565b5b5092915050565b60006060820190508181036000830152613c0e81866127ba565b9050613c1d6020830185612940565b613c2a60408301846128aa565b949350505050565b7f455243373231456e756d657261626c653a20636f6e736563757469766520747260008201527f616e7366657273206e6f7420737570706f727465640000000000000000000000602082015250565b6000613c8e60358361276e565b9150613c9982613c32565b604082019050919050565b60006020820190508181036000830152613cbd81613c81565b9050919050565b600081519050919050565b600082825260208201905092915050565b6000613ceb82613cc4565b613cf58185613ccf565b9350613d0581856020860161277f565b613d0e816127a9565b840191505092915050565b6000608082019050613d2e60008301876128aa565b613d3b60208301866128aa565b613d486040830185612940565b8181036060830152613d5a8184613ce0565b905095945050505050565b600081519050613d74816126d4565b92915050565b600060208284031215613d9057613d8f61269e565b5b6000613d9e84828501613d65565b91505092915050565b6000613db282612815565b9150613dbd83612815565b9250828203905081811115613dd557613dd4613b1e565b5b92915050565b7f4e487b7100000000000000000000000000000000000000000000000000000000600052603160045260246000fd5b7f4552433732313a206d696e7420746f20746865207a65726f2061646472657373600082015250565b6000613e4060208361276e565b9150613e4b82613e0a565b602082019050919050565b60006020820190508181036000830152613e6f81613e33565b9050919050565b7f4552433732313a20746f6b656e20616c7265616479206d696e74656400000000600082015250565b6000613eac601c8361276e565b9150613eb782613e76565b602082019050919050565b60006020820190508181036000830152613edb81613e9f565b905091905056fe416e204e465420772f20494420257320686173206265656e206d696e74656420746f2025734142434445464748494a4b4c4d4e4f505152535455565758595a6162636465666768696a6b6c6d6e6f707172737475767778797a303132333435363738392b2fa2646970667358221220c95e20ea557a283d025d4c58abe378fb9b08688359c8622ea36b52a2a6ed462464736f6c63430008120033",
  "linkReferences": {},
  "deployedLinkReferences": {}
}