{
  "_format": "hh-sol-artifact-1",
  "contractName": "Web3Mint",
  "sourceName": "contracts/Web3Mint.sol",
  "abi": [
    {
      "inputs": [],
      "stateMutability": "nonpayable",
      "type": "constructor"
    },
    {
      "anonymous": false,
      "inputs": [
        {
          "indexed": true,
          "internalType": "address",
          "name": "owner",
          "type": "address"
        },
        {
          "indexed": true,
          "internalType": "address",
          "name": "approved",
          "type": "address"
        },
        {
          "indexed": true,
          "internalType": "uint256",
          "name": "tokenId",
          "type": "uint256"
        }
      ],
      "name": "Approval",
      "type": "event"
    },
    {
      "anonymous": false,
      "inputs": [
        {
          "indexed": true,
          "internalType": "address",
          "name": "owner",
          "type": "address"
        },
        {
          "indexed": true,
          "internalType": "address",
          "name": "operator",
          "type": "address"
        },
        {
          "indexed": false,
          "internalType": "bool",
          "name": "approved",
          "type": "bool"
        }
      ],
      "name": "ApprovalForAll",
      "type": "event"
    },
    {
      "anonymous": false,
      "inputs": [
        {
          "indexed": true,
          "internalType": "address",
          "name": "from",
          "type": "address"
        },
        {
          "indexed": true,
          "internalType": "address",
          "name": "to",
          "type": "address"
        },
        {
          "indexed": true,
          "internalType": "uint256",
          "name": "tokenId",
          "type": "uint256"
        }
      ],
      "name": "Transfer",
      "type": "event"
    },
    {
      "inputs": [
        {
          "internalType": "address",
          "name": "to",
          "type": "address"
        },
        {
          "internalType": "uint256",
          "name": "tokenId",
          "type": "uint256"
        }
      ],
      "name": "approve",
      "outputs": [],
      "stateMutability": "nonpayable",
      "type": "function"
    },
    {
      "inputs": [
        {
          "internalType": "address",
          "name": "owner",
          "type": "address"
        }
      ],
      "name": "balanceOf",
      "outputs": [
        {
          "internalType": "uint256",
          "name": "",
          "type": "uint256"
        }
      ],
      "stateMutability": "view",
      "type": "function"
    },
    {
      "inputs": [
        {
          "internalType": "uint256",
          "name": "tokenId",
          "type": "uint256"
        }
      ],
      "name": "getApproved",
      "outputs": [
        {
          "internalType": "address",
          "name": "",
          "type": "address"
        }
      ],
      "stateMutability": "view",
      "type": "function"
    },
    {
      "inputs": [
        {
          "internalType": "address",
          "name": "owner",
          "type": "address"
        },
        {
          "internalType": "address",
          "name": "operator",
          "type": "address"
        }
      ],
      "name": "isApprovedForAll",
      "outputs": [
        {
          "internalType": "bool",
          "name": "",
          "type": "bool"
        }
      ],
      "stateMutability": "view",
      "type": "function"
    },
    {
      "inputs": [
        {
          "internalType": "string",
          "name": "name",
          "type": "string"
        },
        {
          "internalType": "string",
          "name": "imageURI",
          "type": "string"
        }
      ],
      "name": "makeAnEpicNFT",
      "outputs": [],
      "stateMutability": "nonpayable",
      "type": "function"
    },
    {
      "inputs": [],
      "name": "name",
      "outputs": [
        {
          "internalType": "string",
          "name": "",
          "type": "string"
        }
      ],
      "stateMutability": "view",
      "type": "function"
    },
    {
      "inputs": [
        {
          "internalType": "uint256",
          "name": "tokenId",
          "type": "uint256"
        }
      ],
      "name": "ownerOf",
      "outputs": [
        {
          "internalType": "address",
          "name": "",
          "type": "address"
        }
      ],
      "stateMutability": "view",
      "type": "function"
    },
    {
      "inputs": [
        {
          "internalType": "address",
          "name": "from",
          "type": "address"
        },
        {
          "internalType": "address",
          "name": "to",
          "type": "address"
        },
        {
          "internalType": "uint256",
          "name": "tokenId",
          "type": "uint256"
        }
      ],
      "name": "safeTransferFrom",
      "outputs": [],
      "stateMutability": "nonpayable",
      "type": "function"
    },
    {
      "inputs": [
        {
          "internalType": "address",
          "name": "from",
          "type": "address"
        },
        {
          "internalType": "address",
          "name": "to",
          "type": "address"
        },
        {
          "internalType": "uint256",
          "name": "tokenId",
          "type": "uint256"
        },
        {
          "internalType": "bytes",
          "name": "data",
          "type": "bytes"
        }
      ],
      "name": "safeTransferFrom",
      "outputs": [],
      "stateMutability": "nonpayable",
      "type": "function"
    },
    {
      "inputs": [
        {
          "internalType": "address",
          "name": "operator",
          "type": "address"
        },
        {
          "internalType": "bool",
          "name": "approved",
          "type": "bool"
        }
      ],
      "name": "setApprovalForAll",
      "outputs": [],
      "stateMutability": "nonpayable",
      "type": "function"
    },
    {
      "inputs": [
        {
          "internalType": "bytes4",
          "name": "interfaceId",
          "type": "bytes4"
        }
      ],
      "name": "supportsInterface",
      "outputs": [
        {
          "internalType": "bool",
          "name": "",
          "type": "bool"
        }
      ],
      "stateMutability": "view",
      "type": "function"
    },
    {
      "inputs": [],
      "name": "symbol",
      "outputs": [
        {
          "internalType": "string",
          "name": "",
          "type": "string"
        }
      ],
      "stateMutability": "view",
      "type": "function"
    },
    {
      "inputs": [
        {
          "internalType": "uint256",
          "name": "_tokenId",
          "type": "uint256"
        }
      ],
      "name": "tokenURI",
      "outputs": [
        {
          "internalType": "string",
          "name": "",
          "type": "string"
        }
      ],
      "stateMutability": "view",
      "type": "function"
    },
    {
      "inputs": [
        {
          "internalType": "address",
          "name": "from",
          "type": "address"
        },
        {
          "internalType": "address",
          "name": "to",
          "type": "address"
        },
        {
          "internalType": "uint256",
          "name": "tokenId",
          "type": "uint256"
        }
      ],
      "name": "transferFrom",
      "outputs": [],
      "stateMutability": "nonpayable",
      "type": "function"
    },
    {
      "inputs": [
        {
          "internalType": "uint256",
          "name": "",
          "type": "uint256"
        }
      ],
      "name": "web3Nfts",
      "outputs": [
        {
          "internalType": "string",
          "name": "name",
          "type": "string"
        },
        {
          "internalType": "string",
          "name": "imageURL",
          "type": "string"
        }
      ],
      "stateMutability": "view",
      "type": "function"
    }
  ],
  "bytecode": "0x60806040523480156200001157600080fd5b506040518060400160405280600381526020017f4e465400000000000000000000000000000000000000000000000000000000008152506040518060400160405280600381526020017f6e6674000000000000000000000000000000000000000000000000000000000081525081600090816200008f91906200043b565b508060019081620000a191906200043b565b505050620000ef6040518060400160405280601881526020017f54686973206973206d79204e465420636f6e74726163742e0000000000000000815250620000f560201b62000c071760201c565b620005d5565b62000195816040516024016200010c9190620005b1565b6040516020818303038152906040527f41304fac000000000000000000000000000000000000000000000000000000007bffffffffffffffffffffffffffffffffffffffffffffffffffffffff19166020820180517bffffffffffffffffffffffffffffffffffffffffffffffffffffffff83818316178352505050506200019860201b60201c565b50565b60008151905060006a636f6e736f6c652e6c6f679050602083016000808483855afa5050505050565b600081519050919050565b7f4e487b7100000000000000000000000000000000000000000000000000000000600052604160045260246000fd5b7f4e487b7100000000000000000000000000000000000000000000000000000000600052602260045260246000fd5b600060028204905060018216806200024357607f821691505b602082108103620002595762000258620001fb565b5b50919050565b60008190508160005260206000209050919050565b60006020601f8301049050919050565b600082821b905092915050565b600060088302620002c37fffffffffffffffffffffffffffffffffffffffffffffffffffffffffffffffff8262000284565b620002cf868362000284565b95508019841693508086168417925050509392505050565b6000819050919050565b6000819050919050565b60006200031c620003166200031084620002e7565b620002f1565b620002e7565b9050919050565b6000819050919050565b6200033883620002fb565b62000350620003478262000323565b84845462000291565b825550505050565b600090565b6200036762000358565b620003748184846200032d565b505050565b5b818110156200039c57620003906000826200035d565b6001810190506200037a565b5050565b601f821115620003eb57620003b5816200025f565b620003c08462000274565b81016020851015620003d0578190505b620003e8620003df8562000274565b83018262000379565b50505b505050565b600082821c905092915050565b60006200041060001984600802620003f0565b1980831691505092915050565b60006200042b8383620003fd565b9150826002028217905092915050565b6200044682620001c1565b67ffffffffffffffff811115620004625762000461620001cc565b5b6200046e82546200022a565b6200047b828285620003a0565b600060209050601f831160018114620004b357600084156200049e578287015190505b620004aa85826200041d565b8655506200051a565b601f198416620004c3866200025f565b60005b82811015620004ed57848901518255600182019150602085019450602081019050620004c6565b868310156200050d578489015162000509601f891682620003fd565b8355505b6001600288020188555050505b505050505050565b600082825260208201905092915050565b60005b838110156200055357808201518184015260208101905062000536565b60008484015250505050565b6000601f19601f8301169050919050565b60006200057d82620001c1565b62000589818562000522565b93506200059b81856020860162000533565b620005a6816200055f565b840191505092915050565b60006020820190508181036000830152620005cd818462000570565b905092915050565b61324080620005e56000396000f3fe608060405234801561001057600080fd5b50600436106100f55760003560e01c806370a0823111610097578063b88d4fde11610066578063b88d4fde14610282578063c87b56dd1461029e578063e985e9c5146102ce578063fad1f30a146102fe576100f5565b806370a08231146101fc5780637e8a07441461022c57806395d89b4114610248578063a22cb46514610266576100f5565b8063095ea7b3116100d3578063095ea7b31461017857806323b872dd1461019457806342842e0e146101b05780636352211e146101cc576100f5565b806301ffc9a7146100fa57806306fdde031461012a578063081812fc14610148575b600080fd5b610114600480360381019061010f9190611d46565b61032f565b6040516101219190611d8e565b60405180910390f35b610132610411565b60405161013f9190611e39565b60405180910390f35b610162600480360381019061015d9190611e91565b6104a3565b60405161016f9190611eff565b60405180910390f35b610192600480360381019061018d9190611f46565b6104e9565b005b6101ae60048036038101906101a99190611f86565b610600565b005b6101ca60048036038101906101c59190611f86565b610660565b005b6101e660048036038101906101e19190611e91565b610680565b6040516101f39190611eff565b60405180910390f35b61021660048036038101906102119190611fd9565b610706565b6040516102239190612015565b60405180910390f35b61024660048036038101906102419190612165565b6107bd565b005b610250610875565b60405161025d9190611e39565b60405180910390f35b610280600480360381019061027b9190612209565b610907565b005b61029c600480360381019061029791906122ea565b61091d565b005b6102b860048036038101906102b39190611e91565b61097f565b6040516102c59190611e39565b60405180910390f35b6102e860048036038101906102e3919061236d565b610a2f565b6040516102f59190611d8e565b60405180910390f35b61031860048036038101906103139190611e91565b610ac3565b6040516103269291906123ad565b60405180910390f35b60007f80ac58cd000000000000000000000000000000000000000000000000000000007bffffffffffffffffffffffffffffffffffffffffffffffffffffffff1916827bffffffffffffffffffffffffffffffffffffffffffffffffffffffff191614806103fa57507f5b5e139f000000000000000000000000000000000000000000000000000000007bffffffffffffffffffffffffffffffffffffffffffffffffffffffff1916827bffffffffffffffffffffffffffffffffffffffffffffffffffffffff1916145b8061040a575061040982610ca0565b5b9050919050565b60606000805461042090612413565b80601f016020809104026020016040519081016040528092919081815260200182805461044c90612413565b80156104995780601f1061046e57610100808354040283529160200191610499565b820191906000526020600020905b81548152906001019060200180831161047c57829003601f168201915b5050505050905090565b60006104ae82610d0a565b6004600083815260200190815260200160002060009054906101000a900473ffffffffffffffffffffffffffffffffffffffff169050919050565b60006104f482610680565b90508073ffffffffffffffffffffffffffffffffffffffff168373ffffffffffffffffffffffffffffffffffffffff1603610564576040517f08c379a000000000000000000000000000000000000000000000000000000000815260040161055b906124b6565b60405180910390fd5b8073ffffffffffffffffffffffffffffffffffffffff16610583610d55565b73ffffffffffffffffffffffffffffffffffffffff1614806105b257506105b1816105ac610d55565b610a2f565b5b6105f1576040517f08c379a00000000000000000000000000000000000000000000000000000000081526004016105e890612548565b60405180910390fd5b6105fb8383610d5d565b505050565b61061161060b610d55565b82610e16565b610650576040517f08c379a0000000000000000000000000000000000000000000000000000000008152600401610647906125da565b60405180910390fd5b61065b838383610eab565b505050565b61067b8383836040518060200160405280600081525061091d565b505050565b60008061068c836111a4565b9050600073ffffffffffffffffffffffffffffffffffffffff168173ffffffffffffffffffffffffffffffffffffffff16036106fd576040517f08c379a00000000000000000000000000000000000000000000000000000000081526004016106f490612646565b60405180910390fd5b80915050919050565b60008073ffffffffffffffffffffffffffffffffffffffff168273ffffffffffffffffffffffffffffffffffffffff1603610776576040517f08c379a000000000000000000000000000000000000000000000000000000000815260040161076d906126d8565b60405180910390fd5b600360008373ffffffffffffffffffffffffffffffffffffffff1673ffffffffffffffffffffffffffffffffffffffff168152602001908152602001600020549050919050565b60006107c960076111e1565b90506107d533826111ef565b60066040518060400160405280858152602001848152509080600181540180825580915050600190039060005260206000209060020201600090919091909150600082015181600001908161082a91906128a4565b50602082015181600101908161084091906128a4565b5050506108666040518060600160405280602581526020016131a660259139823361120d565b61087060076112ac565b505050565b60606001805461088490612413565b80601f01602080910402602001604051908101604052809291908181526020018280546108b090612413565b80156108fd5780601f106108d2576101008083540402835291602001916108fd565b820191906000526020600020905b8154815290600101906020018083116108e057829003601f168201915b5050505050905090565b610919610912610d55565b83836112c2565b5050565b61092e610928610d55565b83610e16565b61096d576040517f08c379a0000000000000000000000000000000000000000000000000000000008152600401610964906125da565b60405180910390fd5b6109798484848461142e565b50505050565b606060006109ff6006848154811061099a57610999612976565b5b90600052602060002090600202016000016109b48561148a565b600686815481106109c8576109c7612976565b5b90600052602060002090600202016001016040516020016109eb93929190612bba565b604051602081830303815290604052611558565b9050600081604051602001610a149190612c63565b60405160208183030381529060405290508092505050919050565b6000600560008473ffffffffffffffffffffffffffffffffffffffff1673ffffffffffffffffffffffffffffffffffffffff16815260200190815260200160002060008373ffffffffffffffffffffffffffffffffffffffff1673ffffffffffffffffffffffffffffffffffffffff16815260200190815260200160002060009054906101000a900460ff16905092915050565b60068181548110610ad357600080fd5b9060005260206000209060020201600091509050806000018054610af690612413565b80601f0160208091040260200160405190810160405280929190818152602001828054610b2290612413565b8015610b6f5780601f10610b4457610100808354040283529160200191610b6f565b820191906000526020600020905b815481529060010190602001808311610b5257829003601f168201915b505050505090806001018054610b8490612413565b80601f0160208091040260200160405190810160405280929190818152602001828054610bb090612413565b8015610bfd5780601f10610bd257610100808354040283529160200191610bfd565b820191906000526020600020905b815481529060010190602001808311610be057829003601f168201915b5050505050905082565b610c9d81604051602401610c1b9190611e39565b6040516020818303038152906040527f41304fac000000000000000000000000000000000000000000000000000000007bffffffffffffffffffffffffffffffffffffffffffffffffffffffff19166020820180517bffffffffffffffffffffffffffffffffffffffffffffffffffffffff83818316178352505050506116ef565b50565b60007f01ffc9a7000000000000000000000000000000000000000000000000000000007bffffffffffffffffffffffffffffffffffffffffffffffffffffffff1916827bffffffffffffffffffffffffffffffffffffffffffffffffffffffff1916149050919050565b610d1381611718565b610d52576040517f08c379a0000000000000000000000000000000000000000000000000000000008152600401610d4990612646565b60405180910390fd5b50565b600033905090565b816004600083815260200190815260200160002060006101000a81548173ffffffffffffffffffffffffffffffffffffffff021916908373ffffffffffffffffffffffffffffffffffffffff160217905550808273ffffffffffffffffffffffffffffffffffffffff16610dd083610680565b73ffffffffffffffffffffffffffffffffffffffff167f8c5be1e5ebec7d5bd14f71427d1e84f3dd0314c0f7b2291e5b200ac8c7c3b92560405160405180910390a45050565b600080610e2283610680565b90508073ffffffffffffffffffffffffffffffffffffffff168473ffffffffffffffffffffffffffffffffffffffff161480610e645750610e638185610a2f565b5b80610ea257508373ffffffffffffffffffffffffffffffffffffffff16610e8a846104a3565b73ffffffffffffffffffffffffffffffffffffffff16145b91505092915050565b8273ffffffffffffffffffffffffffffffffffffffff16610ecb82610680565b73ffffffffffffffffffffffffffffffffffffffff1614610f21576040517f08c379a0000000000000000000000000000000000000000000000000000000008152600401610f1890612cf7565b60405180910390fd5b600073ffffffffffffffffffffffffffffffffffffffff168273ffffffffffffffffffffffffffffffffffffffff1603610f90576040517f08c379a0000000000000000000000000000000000000000000000000000000008152600401610f8790612d89565b60405180910390fd5b610f9d8383836001611759565b8273ffffffffffffffffffffffffffffffffffffffff16610fbd82610680565b73ffffffffffffffffffffffffffffffffffffffff1614611013576040517f08c379a000000000000000000000000000000000000000000000000000000000815260040161100a90612cf7565b60405180910390fd5b6004600082815260200190815260200160002060006101000a81549073ffffffffffffffffffffffffffffffffffffffff02191690556001600360008573ffffffffffffffffffffffffffffffffffffffff1673ffffffffffffffffffffffffffffffffffffffff168152602001908152602001600020600082825403925050819055506001600360008473ffffffffffffffffffffffffffffffffffffffff1673ffffffffffffffffffffffffffffffffffffffff16815260200190815260200160002060008282540192505081905550816002600083815260200190815260200160002060006101000a81548173ffffffffffffffffffffffffffffffffffffffff021916908373ffffffffffffffffffffffffffffffffffffffff160217905550808273ffffffffffffffffffffffffffffffffffffffff168473ffffffffffffffffffffffffffffffffffffffff167fddf252ad1be2c89b69c2b068fc378daa952ba7f163c4a11628f55a4df523b3ef60405160405180910390a461119f838383600161175f565b505050565b60006002600083815260200190815260200160002060009054906101000a900473ffffffffffffffffffffffffffffffffffffffff169050919050565b600081600001549050919050565b611209828260405180602001604052806000815250611765565b5050565b6112a783838360405160240161122593929190612da9565b6040516020818303038152906040527f1c7ec448000000000000000000000000000000000000000000000000000000007bffffffffffffffffffffffffffffffffffffffffffffffffffffffff19166020820180517bffffffffffffffffffffffffffffffffffffffffffffffffffffffff83818316178352505050506116ef565b505050565b6001816000016000828254019250508190555050565b8173ffffffffffffffffffffffffffffffffffffffff168373ffffffffffffffffffffffffffffffffffffffff1603611330576040517f08c379a000000000000000000000000000000000000000000000000000000000815260040161132790612e33565b60405180910390fd5b80600560008573ffffffffffffffffffffffffffffffffffffffff1673ffffffffffffffffffffffffffffffffffffffff16815260200190815260200160002060008473ffffffffffffffffffffffffffffffffffffffff1673ffffffffffffffffffffffffffffffffffffffff16815260200190815260200160002060006101000a81548160ff0219169083151502179055508173ffffffffffffffffffffffffffffffffffffffff168373ffffffffffffffffffffffffffffffffffffffff167f17307eab39ab6107e8899845ad3d59bd9653f200f220920489ca2b5937696c31836040516114219190611d8e565b60405180910390a3505050565b611439848484610eab565b611445848484846117c0565b611484576040517f08c379a000000000000000000000000000000000000000000000000000000000815260040161147b90612ec5565b60405180910390fd5b50505050565b60606000600161149984611947565b01905060008167ffffffffffffffff8111156114b8576114b761203a565b5b6040519080825280601f01601f1916602001820160405280156114ea5781602001600182028036833780820191505090505b509050600082602001820190505b60011561154d578080600190039150507f3031323334353637383961626364656600000000000000000000000000000000600a86061a8153600a858161154157611540612ee5565b5b049450600085036114f8575b819350505050919050565b60606000825190506000810361158057604051806020016040528060008152509150506116ea565b600060036002836115919190612f43565b61159b9190612f77565b60046115a79190612fa8565b905060006020826115b89190612f43565b67ffffffffffffffff8111156115d1576115d061203a565b5b6040519080825280601f01601f1916602001820160405280156116035781602001600182028036833780820191505090505b50905060006040518060600160405280604081526020016131cb604091399050600181016020830160005b868110156116a75760038101905062ffffff818a015116603f8160121c168401518060081b905060ff603f83600c1c1686015116810190508060081b905060ff603f8360061c1686015116810190508060081b905060ff603f831686015116810190508060e01b9050808452600484019350505061162e565b5060038606600181146116c157600281146116d1576116dc565b613d3d60f01b60028303526116dc565b603d60f81b60018303525b508484525050819450505050505b919050565b60008151905060006a636f6e736f6c652e6c6f679050602083016000808483855afa5050505050565b60008073ffffffffffffffffffffffffffffffffffffffff1661173a836111a4565b73ffffffffffffffffffffffffffffffffffffffff1614159050919050565b50505050565b50505050565b61176f8383611a9a565b61177c60008484846117c0565b6117bb576040517f08c379a00000000000000000000000000000000000000000000000000000000081526004016117b290612ec5565b60405180910390fd5b505050565b60006117e18473ffffffffffffffffffffffffffffffffffffffff16611cb7565b1561193a578373ffffffffffffffffffffffffffffffffffffffff1663150b7a0261180a610d55565b8786866040518563ffffffff1660e01b815260040161182c949392919061303f565b6020604051808303816000875af192505050801561186857506040513d601f19601f8201168201806040525081019061186591906130a0565b60015b6118ea573d8060008114611898576040519150601f19603f3d011682016040523d82523d6000602084013e61189d565b606091505b5060008151036118e2576040517f08c379a00000000000000000000000000000000000000000000000000000000081526004016118d990612ec5565b60405180910390fd5b805181602001fd5b63150b7a0260e01b7bffffffffffffffffffffffffffffffffffffffffffffffffffffffff1916817bffffffffffffffffffffffffffffffffffffffffffffffffffffffff19161491505061193f565b600190505b949350505050565b600080600090507a184f03e93ff9f4daa797ed6e38ed64bf6a1f01000000000000000083106119a5577a184f03e93ff9f4daa797ed6e38ed64bf6a1f010000000000000000838161199b5761199a612ee5565b5b0492506040810190505b6d04ee2d6d415b85acef810000000083106119e2576d04ee2d6d415b85acef810000000083816119d8576119d7612ee5565b5b0492506020810190505b662386f26fc100008310611a1157662386f26fc100008381611a0757611a06612ee5565b5b0492506010810190505b6305f5e1008310611a3a576305f5e1008381611a3057611a2f612ee5565b5b0492506008810190505b6127108310611a5f576127108381611a5557611a54612ee5565b5b0492506004810190505b60648310611a825760648381611a7857611a77612ee5565b5b0492506002810190505b600a8310611a91576001810190505b80915050919050565b600073ffffffffffffffffffffffffffffffffffffffff168273ffffffffffffffffffffffffffffffffffffffff1603611b09576040517f08c379a0000000000000000000000000000000000000000000000000000000008152600401611b0090613119565b60405180910390fd5b611b1281611718565b15611b52576040517f08c379a0000000000000000000000000000000000000000000000000000000008152600401611b4990613185565b60405180910390fd5b611b60600083836001611759565b611b6981611718565b15611ba9576040517f08c379a0000000000000000000000000000000000000000000000000000000008152600401611ba090613185565b60405180910390fd5b6001600360008473ffffffffffffffffffffffffffffffffffffffff1673ffffffffffffffffffffffffffffffffffffffff16815260200190815260200160002060008282540192505081905550816002600083815260200190815260200160002060006101000a81548173ffffffffffffffffffffffffffffffffffffffff021916908373ffffffffffffffffffffffffffffffffffffffff160217905550808273ffffffffffffffffffffffffffffffffffffffff16600073ffffffffffffffffffffffffffffffffffffffff167fddf252ad1be2c89b69c2b068fc378daa952ba7f163c4a11628f55a4df523b3ef60405160405180910390a4611cb360008383600161175f565b5050565b6000808273ffffffffffffffffffffffffffffffffffffffff163b119050919050565b6000604051905090565b600080fd5b600080fd5b60007fffffffff0000000000000000000000000000000000000000000000000000000082169050919050565b611d2381611cee565b8114611d2e57600080fd5b50565b600081359050611d4081611d1a565b92915050565b600060208284031215611d5c57611d5b611ce4565b5b6000611d6a84828501611d31565b91505092915050565b60008115159050919050565b611d8881611d73565b82525050565b6000602082019050611da36000830184611d7f565b92915050565b600081519050919050565b600082825260208201905092915050565b60005b83811015611de3578082015181840152602081019050611dc8565b60008484015250505050565b6000601f19601f8301169050919050565b6000611e0b82611da9565b611e158185611db4565b9350611e25818560208601611dc5565b611e2e81611def565b840191505092915050565b60006020820190508181036000830152611e538184611e00565b905092915050565b6000819050919050565b611e6e81611e5b565b8114611e7957600080fd5b50565b600081359050611e8b81611e65565b92915050565b600060208284031215611ea757611ea6611ce4565b5b6000611eb584828501611e7c565b91505092915050565b600073ffffffffffffffffffffffffffffffffffffffff82169050919050565b6000611ee982611ebe565b9050919050565b611ef981611ede565b82525050565b6000602082019050611f146000830184611ef0565b92915050565b611f2381611ede565b8114611f2e57600080fd5b50565b600081359050611f4081611f1a565b92915050565b60008060408385031215611f5d57611f5c611ce4565b5b6000611f6b85828601611f31565b9250506020611f7c85828601611e7c565b9150509250929050565b600080600060608486031215611f9f57611f9e611ce4565b5b6000611fad86828701611f31565b9350506020611fbe86828701611f31565b9250506040611fcf86828701611e7c565b9150509250925092565b600060208284031215611fef57611fee611ce4565b5b6000611ffd84828501611f31565b91505092915050565b61200f81611e5b565b82525050565b600060208201905061202a6000830184612006565b92915050565b600080fd5b600080fd5b7f4e487b7100000000000000000000000000000000000000000000000000000000600052604160045260246000fd5b61207282611def565b810181811067ffffffffffffffff821117156120915761209061203a565b5b80604052505050565b60006120a4611cda565b90506120b08282612069565b919050565b600067ffffffffffffffff8211156120d0576120cf61203a565b5b6120d982611def565b9050602081019050919050565b82818337600083830152505050565b6000612108612103846120b5565b61209a565b90508281526020810184848401111561212457612123612035565b5b61212f8482856120e6565b509392505050565b600082601f83011261214c5761214b612030565b5b813561215c8482602086016120f5565b91505092915050565b6000806040838503121561217c5761217b611ce4565b5b600083013567ffffffffffffffff81111561219a57612199611ce9565b5b6121a685828601612137565b925050602083013567ffffffffffffffff8111156121c7576121c6611ce9565b5b6121d385828601612137565b9150509250929050565b6121e681611d73565b81146121f157600080fd5b50565b600081359050612203816121dd565b92915050565b600080604083850312156122205761221f611ce4565b5b600061222e85828601611f31565b925050602061223f858286016121f4565b9150509250929050565b600067ffffffffffffffff8211156122645761226361203a565b5b61226d82611def565b9050602081019050919050565b600061228d61228884612249565b61209a565b9050828152602081018484840111156122a9576122a8612035565b5b6122b48482856120e6565b509392505050565b600082601f8301126122d1576122d0612030565b5b81356122e184826020860161227a565b91505092915050565b6000806000806080858703121561230457612303611ce4565b5b600061231287828801611f31565b945050602061232387828801611f31565b935050604061233487828801611e7c565b925050606085013567ffffffffffffffff81111561235557612354611ce9565b5b612361878288016122bc565b91505092959194509250565b6000806040838503121561238457612383611ce4565b5b600061239285828601611f31565b92505060206123a385828601611f31565b9150509250929050565b600060408201905081810360008301526123c78185611e00565b905081810360208301526123db8184611e00565b90509392505050565b7f4e487b7100000000000000000000000000000000000000000000000000000000600052602260045260246000fd5b6000600282049050600182168061242b57607f821691505b60208210810361243e5761243d6123e4565b5b50919050565b7f4552433732313a20617070726f76616c20746f2063757272656e74206f776e6560008201527f7200000000000000000000000000000000000000000000000000000000000000602082015250565b60006124a0602183611db4565b91506124ab82612444565b604082019050919050565b600060208201905081810360008301526124cf81612493565b9050919050565b7f4552433732313a20617070726f76652063616c6c6572206973206e6f7420746f60008201527f6b656e206f776e6572206f7220617070726f76656420666f7220616c6c000000602082015250565b6000612532603d83611db4565b915061253d826124d6565b604082019050919050565b6000602082019050818103600083015261256181612525565b9050919050565b7f4552433732313a2063616c6c6572206973206e6f7420746f6b656e206f776e6560008201527f72206f7220617070726f76656400000000000000000000000000000000000000602082015250565b60006125c4602d83611db4565b91506125cf82612568565b604082019050919050565b600060208201905081810360008301526125f3816125b7565b9050919050565b7f4552433732313a20696e76616c696420746f6b656e2049440000000000000000600082015250565b6000612630601883611db4565b915061263b826125fa565b602082019050919050565b6000602082019050818103600083015261265f81612623565b9050919050565b7f4552433732313a2061646472657373207a65726f206973206e6f74206120766160008201527f6c6964206f776e65720000000000000000000000000000000000000000000000602082015250565b60006126c2602983611db4565b91506126cd82612666565b604082019050919050565b600060208201905081810360008301526126f1816126b5565b9050919050565b60008190508160005260206000209050919050565b60006020601f8301049050919050565b600082821b905092915050565b60006008830261275a7fffffffffffffffffffffffffffffffffffffffffffffffffffffffffffffffff8261271d565b612764868361271d565b95508019841693508086168417925050509392505050565b6000819050919050565b60006127a161279c61279784611e5b565b61277c565b611e5b565b9050919050565b6000819050919050565b6127bb83612786565b6127cf6127c7826127a8565b84845461272a565b825550505050565b600090565b6127e46127d7565b6127ef8184846127b2565b505050565b5b81811015612813576128086000826127dc565b6001810190506127f5565b5050565b601f82111561285857612829816126f8565b6128328461270d565b81016020851015612841578190505b61285561284d8561270d565b8301826127f4565b50505b505050565b600082821c905092915050565b600061287b6000198460080261285d565b1980831691505092915050565b6000612894838361286a565b9150826002028217905092915050565b6128ad82611da9565b67ffffffffffffffff8111156128c6576128c561203a565b5b6128d08254612413565b6128db828285612817565b600060209050601f83116001811461290e57600084156128fc578287015190505b6129068582612888565b86555061296e565b601f19841661291c866126f8565b60005b828110156129445784890151825560018201915060208501945060208101905061291f565b86831015612961578489015161295d601f89168261286a565b8355505b6001600288020188555050505b505050505050565b7f4e487b7100000000000000000000000000000000000000000000000000000000600052603260045260246000fd5b600081905092915050565b7f7b226e616d65223a202200000000000000000000000000000000000000000000600082015250565b60006129e6600a836129a5565b91506129f1826129b0565b600a82019050919050565b60008154612a0981612413565b612a1381866129a5565b94506001821660008114612a2e5760018114612a4357612a76565b60ff1983168652811515820286019350612a76565b612a4c856126f8565b60005b83811015612a6e57815481890152600182019150602081019050612a4f565b838801955050505b50505092915050565b7f202d2d204e465420233a20000000000000000000000000000000000000000000600082015250565b6000612ab5600b836129a5565b9150612ac082612a7f565b600b82019050919050565b6000612ad682611da9565b612ae081856129a5565b9350612af0818560208601611dc5565b80840191505092915050565b7f222c20226465736372697074696f6e223a2022416e2065706963204e4654222c60008201527f2022696d616765223a2022697066733a2f2f0000000000000000000000000000602082015250565b6000612b586032836129a5565b9150612b6382612afc565b603282019050919050565b7f227d000000000000000000000000000000000000000000000000000000000000600082015250565b6000612ba46002836129a5565b9150612baf82612b6e565b600282019050919050565b6000612bc5826129d9565b9150612bd182866129fc565b9150612bdc82612aa8565b9150612be88285612acb565b9150612bf382612b4b565b9150612bff82846129fc565b9150612c0a82612b97565b9150819050949350505050565b7f646174613a6170706c69636174696f6e2f6a736f6e3b6261736536342c000000600082015250565b6000612c4d601d836129a5565b9150612c5882612c17565b601d82019050919050565b6000612c6e82612c40565b9150612c7a8284612acb565b915081905092915050565b7f4552433732313a207472616e736665722066726f6d20696e636f72726563742060008201527f6f776e6572000000000000000000000000000000000000000000000000000000602082015250565b6000612ce1602583611db4565b9150612cec82612c85565b604082019050919050565b60006020820190508181036000830152612d1081612cd4565b9050919050565b7f4552433732313a207472616e7366657220746f20746865207a65726f2061646460008201527f7265737300000000000000000000000000000000000000000000000000000000602082015250565b6000612d73602483611db4565b9150612d7e82612d17565b604082019050919050565b60006020820190508181036000830152612da281612d66565b9050919050565b60006060820190508181036000830152612dc38186611e00565b9050612dd26020830185612006565b612ddf6040830184611ef0565b949350505050565b7f4552433732313a20617070726f766520746f2063616c6c657200000000000000600082015250565b6000612e1d601983611db4565b9150612e2882612de7565b602082019050919050565b60006020820190508181036000830152612e4c81612e10565b9050919050565b7f4552433732313a207472616e7366657220746f206e6f6e20455243373231526560008201527f63656976657220696d706c656d656e7465720000000000000000000000000000602082015250565b6000612eaf603283611db4565b9150612eba82612e53565b604082019050919050565b60006020820190508181036000830152612ede81612ea2565b9050919050565b7f4e487b7100000000000000000000000000000000000000000000000000000000600052601260045260246000fd5b7f4e487b7100000000000000000000000000000000000000000000000000000000600052601160045260246000fd5b6000612f4e82611e5b565b9150612f5983611e5b565b9250828201905080821115612f7157612f70612f14565b5b92915050565b6000612f8282611e5b565b9150612f8d83611e5b565b925082612f9d57612f9c612ee5565b5b828204905092915050565b6000612fb382611e5b565b9150612fbe83611e5b565b9250828202612fcc81611e5b565b91508282048414831517612fe357612fe2612f14565b5b5092915050565b600081519050919050565b600082825260208201905092915050565b600061301182612fea565b61301b8185612ff5565b935061302b818560208601611dc5565b61303481611def565b840191505092915050565b60006080820190506130546000830187611ef0565b6130616020830186611ef0565b61306e6040830185612006565b81810360608301526130808184613006565b905095945050505050565b60008151905061309a81611d1a565b92915050565b6000602082840312156130b6576130b5611ce4565b5b60006130c48482850161308b565b91505092915050565b7f4552433732313a206d696e7420746f20746865207a65726f2061646472657373600082015250565b6000613103602083611db4565b915061310e826130cd565b602082019050919050565b60006020820190508181036000830152613132816130f6565b9050919050565b7f4552433732313a20746f6b656e20616c7265616479206d696e74656400000000600082015250565b600061316f601c83611db4565b915061317a82613139565b602082019050919050565b6000602082019050818103600083015261319e81613162565b905091905056fe416e204e465420772f20494420257320686173206265656e206d696e74656420746f2025734142434445464748494a4b4c4d4e4f505152535455565758595a6162636465666768696a6b6c6d6e6f707172737475767778797a303132333435363738392b2fa2646970667358221220db4cc85e0690c162ea08fa835bf712343d333bbfcc75845df1972d50c64d1b6364736f6c63430008120033",
  "linkReferences": {},
  "deployedLinkReferences": {}
}